:020000040800F2
:1028000000500020513F0008296700082B6700088E
:102810004568000847680008496800080000000093
:10282000000000000000000000000000B14F0008A0
:102830004B68000800000000215000085D500008AF
:10284000993F0008993F0008993F0008993F000808
:10285000993F0008993F0008993F0008993F0008F8
:10286000993F0008993F0008993F00084D6800080B
:1028700051680008993F000853680008576800082D
:102880005B6800085F680008993F0008993F0008EE
:10289000993F0008993F0008993F000863680008C5
:1028A000993F00086D680008993F0008993F0008AB
:1028B000993F0008993F0008993F0008996800086F
:1028C0009D680008A1680008A5680008993F0008F5
:1028D000993F0008993F0008993F00086768000881
:1028E000993F0008993F0008993F00080000000048
:1028F00000000000000000000000000000000000D8
:0C29000000000000000000005FF808F17B
:10291000844641EA000313F0030349D1403A23D32C
:102920000B6803604B6843608B688360CB68C3604F
:102930000B6903614B6943618B698361CB69C36137
:102940000B6A03624B6A43628B6A8362CB6AC3621F
:102950000B6B03634B6B43638B6B8363CB6BC36307
:1029600040304031403ADBD230320BD30B68036049
:102970004B6843608B688360CB68C3601030103154
:10298000103AF3D20C3205D351F8043B40F8043B23
:10299000043AF9D2043208D0D2071CBF11F8013B27
:1029A00000F8013B01D30B8803806046704700BFED
:1029B000082A13D38B07B1D010F00303AED0C3F1B4
:1029C0000403D21ADB071CBF11F8013B00F8013BDE
:1029D000A4D331F8023B20F8023B9FE7043AD9D355
:1029E000013A11F8013B00F8013BF9D20B78037072
:1029F0004B7843708B7883706046704781F000415C
:102A000002E000BF83F0004330B54FEA41044FEAD3
:102A1000430594EA050F08BF90EA020F1FBF54EA6E
:102A2000000C55EA020C7FEA645C7FEA655C00F00A
:102A3000E2804FEA5454D4EB5555B8BF6D420CDDDB
:102A40002C4480EA020281EA030382EA000083EA5E
:102A5000010180EA020281EA0303362D88BF30BDFE
:102A600011F0004F4FEA01314FF4801C4CEA113154
:102A700002D0404261EB410113F0004F4FEA0333B3
:102A80004CEA133302D0524263EB430394EA050F3E
:102A900000F0A780A4F10104D5F1200E0DDB02FAAD
:102AA0000EFC22FA05F2801841F1000103FA0EF241
:102AB000801843FA05F359410EE0A5F120050EF107
:102AC000200E012A03FA0EFC28BF4CF0020C43FA38
:102AD00005F3C01851EBE37101F0004507D54FF045
:102AE000000EDCF1000C7EEB00006EEB0101B1F595
:102AF000801F1BD3B1F5001F0CD349085FEA3000DB
:102B00004FEA3C0C04F101044FEA445212F5800FE5
:102B100080F09A80BCF1004F08BF5FEA500C50F182
:102B2000000041EB045141EA050130BD5FEA4C0C65
:102B3000404141EB010111F4801FA4F10104E9D1EE
:102B400091F0000F04BF01460020B1FA81F308BFE5
:102B50002033A3F10B03B3F120020CDA0C3208DDB1
:102B600002F1140CC2F10C0201FA0CF021FA02F18C
:102B70000CE002F11402D8BFC2F1200C01FA02F1FC
:102B800020FA0CFCDCBF41EA0C019040E41AA2BF21
:102B900001EB0451294330BD6FEA04041F3C1CDAE9
:102BA0000C340EDC04F11404C4F1200220FA04F009
:102BB00001FA02F340EA030021FA04F345EA0301B3
:102BC00030BDC4F10C04C4F1200220FA02F001FA75
:102BD00004F340EA0300294630BD21FA04F02946F7
:102BE00030BD94F0000F83F4801306BF81F4801190
:102BF0000134013D4EE77FEA645C18BF7FEA655C03
:102C000029D094EA050F08BF90EA020F05D054EAD4
:102C1000000C04BF1946104630BD91EA030F1EBFD9
:102C20000021002030BD5FEA545C05D140004941DD
:102C300028BF41F0004130BD14F580043CBF01F5D0
:102C4000801130BD01F0004545F0FE4141F47001B6
:102C50004FF0000030BD7FEA645C1ABF1946104691
:102C60007FEA655C1CBF0B46024650EA013406BF92
:102C700052EA033591EA030F41F4002130BD00BF51
:102C800090F0000F04BF0021704730B54FF480640E
:102C900004F132044FF000054FF0000150E700BF8F
:102CA00090F0000F04BF0021704730B54FF48064EE
:102CB00004F1320410F0004548BF40424FF00001DB
:102CC0003EE700BF42004FEAE2014FEA31014FEA1E
:102CD00002701FBF12F07F4393F07F4F81F060516D
:102CE000704792F0000F14BF93F07F4F704730B5DC
:102CF0004FF4607401F0004521F0004120E700BF6F
:102D000050EA010208BF704730B54FF000050AE0F5
:102D100050EA010208BF704730B511F0004502D5F6
:102D2000404261EB41014FF4806404F132045FEAF8
:102D3000915C3FF4DCAE4FF003025FEADC0C18BF9D
:102D400003325FEADC0C18BF033202EBDC02C2F193
:102D5000200300FA03FC20FA02F001FA03FE40EA25
:102D60000E0021FA02F11444C1E600BF70B54FF025
:102D7000FF0C4CF4E06C1CEA11541DBF1CEA135507
:102D800094EA0C0F95EA0C0F00F0DEF82C4481EA6F
:102D9000030621EA4C5123EA4C5350EA013518BF8F
:102DA00052EA033541F4801143F4801338D0A0FB7C
:102DB00002CE4FF00005E1FB02E506F00042E0FB29
:102DC00003E54FF00006E1FB03569CF0000F18BF2F
:102DD0004EF0010EA4F1FF04B6F5007F64F54074D7
:102DE00004D25FEA4E0E6D4146EB060642EAC6216A
:102DF00041EA55514FEAC52040EA5E504FEACE2ED7
:102E0000B4F1FD0C88BFBCF5E06F1ED8BEF1004FD9
:102E100008BF5FEA500E50F1000041EB045170BD55
:102E200006F0004646EA010140EA020081EA030199
:102E3000B4EB5C04C2BFD4EB0C0541EA045170BD95
:102E400041F480114FF0000E013C00F3AB8014F10F
:102E5000360FDEBF002001F0004170BDC4F1000458
:102E6000203C35DA0C341BDC04F11404C4F12005D9
:102E700000FA05F320FA04F001FA05F240EA020034
:102E800001F0004221F0004110EBD37021FA04F66A
:102E900042EB06015EEA430E08BF20EAD37070BD24
:102EA000C4F10C04C4F1200500FA04F320FA05F083
:102EB00001FA04F240EA020001F0004110EBD37085
:102EC00041F100015EEA430E08BF20EAD37070BDF5
:102ED000C4F1200500FA05F24EEA020E20FA04F3CE
:102EE00001FA05F243EA020321FA04F001F000417D
:102EF00021FA04F220EA020000EBD3705EEA430EEE
:102F000008BF20EAD37070BD94F0000F0FD101F01C
:102F10000046400041EB010111F4801F08BF013C55
:102F2000F7D041EA060195F0000F18BF704703F093
:102F30000046520043EB030313F4801F08BF013D1A
:102F4000F7D043EA0603704794EA0C0F0CEA1355D6
:102F500018BF95EA0C0F0CD050EA410618BF52EA90
:102F60004306D1D181EA030101F000414FF0000096
:102F700070BD50EA410606BF1046194652EA4306A4
:102F800019D094EA0C0F02D150EA013613D195EA18
:102F90000C0F05D152EA03361CBF104619460AD160
:102FA00081EA030101F0004141F0FE4141F470016A
:102FB0004FF0000070BD41F0FE4141F4780170BD5A
:102FC00070B54FF0FF0C4CF4E06C1CEA11541DBFBF
:102FD0001CEA135594EA0C0F95EA0C0F00F0A7F8C1
:102FE000A4EB050481EA030E52EA03354FEA0131EE
:102FF00000F088804FEA03334FF0805545EA131301
:1030000043EA12634FEA022245EA111545EA1065C8
:103010004FEA00260EF000419D4208BF964244F15F
:10302000FD0404F5407402D25B084FEA3202B61A7E
:1030300065EB03055B084FEA32024FF480104FF452
:10304000002CB6EB020E75EB030E22BFB61A7546C6
:1030500040EA0C005B084FEA3202B6EB020E75EB59
:10306000030E22BFB61A754640EA5C005B084FEAC1
:103070003202B6EB020E75EB030E22BFB61A75468E
:1030800040EA9C005B084FEA3202B6EB020E75EB99
:10309000030E22BFB61A754640EADC0055EA060E5A
:1030A00018D04FEA051545EA16754FEA06164FEA9D
:1030B000C30343EA52734FEAC2025FEA1C1CC0D149
:1030C00011F4801F0BD141EA00014FF000004FF0D6
:1030D000004CB6E711F4801F04BF01430020B4F197
:1030E000FD0C88BFBCF5E06F3FF6AFAEB5EB030C4F
:1030F00004BFB6EB020C5FEA500C50F1000041EB4C
:10310000045170BD0EF0004E4EEA113114EB5C0418
:10311000C2BFD4EB0C0541EA045170BD41F48011EB
:103120004FF0000E013C90E645EA060E8DE60CEAF3
:10313000135594EA0C0F08BF95EA0C0F3FF43BAF10
:1031400094EA0C0F0AD150EA01347FF434AF95EAC7
:103150000C0F7FF425AF104619462CE795EA0C0FAB
:1031600006D152EA03353FF4FDAE1046194622E778
:1031700050EA410618BF52EA43067FF4C5AE50EA52
:1031800041047FF40DAF52EA43057FF4EBAE12E742
:103190004FF0FF3C06E000BF4FF0010C02E000BF23
:1031A0004FF0010C4DF804CD4FEA410C7FEA6C5C06
:1031B0004FEA430C18BF7FEA6C5C1BD001B050EAA9
:1031C000410C0CBF52EA430C91EA030F02BF90EA94
:1031D000020F0020704710F1000F91EA030F58BF53
:1031E000994208BF90422CBFD8176FEAE37040F0B5
:1031F000010070474FEA410C7FEA6C5C02D150EA53
:10320000013C07D14FEA430C7FEA6C5CD6D152EA0D
:10321000033CD3D05DF8040B704700BF84461046D2
:1032200062468C461946634600E000BF01B5FFF7D1
:10323000B7FF002848BF10F1000F01BD4DF808EDA1
:10324000FFF7F4FF0CBF012000205DF808FB00BF72
:103250004DF808EDFFF7EAFF34BF012000205DF8CC
:1032600008FB00BF4DF808EDFFF7E0FF94BF012019
:1032700000205DF808FB00BF4DF808EDFFF7CEFF1A
:1032800094BF012000205DF808FB00BF4DF808ED59
:10329000FFF7C4FF34BF012000205DF808FB00BF2A
:1032A0004FEA410212F5001215D211D56FF478736E
:1032B000B3EB625212D94FEAC12343F0004343EA11
:1032C000505311F0004F23FA02F018BF40427047EC
:1032D0004FF00000704750EA013005D111F0004076
:1032E00008BF6FF0004070474FF00000704700BF0C
:1032F0004FEA4102B2F1E04324BFB3F5001CDCF118
:10330000FE5C0DD901F0004C4FEAC0024CEA50704F
:10331000B2F1004F40EB830008BF20F0010070477E
:1033200011F0804F21D113F13872BCBF01F0004081
:10333000704741F480114FEA5252C2F11802C2F1B3
:10334000200C10FA0CF320FA02F018BF40F0010034
:103350004FEAC1234FEAD32303FA0CFC40EA0C00E6
:1033600023FA02F34FEA4303CCE77FEA625307D123
:1033700050EA01331EBF4FF0FE4040F4400070475A
:1033800001F0004040F0FE4040F40000704700BFF4
:1033900080F0004002E000BF81F0004142001FBF0A
:1033A0005FEA410392EA030F7FEA226C7FEA236C13
:1033B0006AD04FEA1262D2EB1363C1BFD218414008
:1033C00048404140B8BF5B42192B88BF704710F09E
:1033D000004F40F4000020F07F4018BF404211F041
:1033E000004F41F4000121F07F4118BF494292EAA9
:1033F000030F3FD0A2F1010241FA03FC10EB0C00D5
:10340000C3F1200301FA03F100F0004302D5494261
:1034100060EB4000B0F5000F13D3B0F1807F06D30E
:1034200040084FEA310102F10102FE2A51D2B1F106
:10343000004F40EBC25008BF20F0010040EA0300FB
:103440007047490040EB000010F4000FA2F10102A8
:10345000EDD1B0FA80FCACF1080CB2EB0C0200FA32
:103460000CF0AABF00EBC25052421843BCBFD04080
:103470001843704792F0000F81F4000106BF80F4FA
:1034800000000132013BB5E74FEA41037FEA226CBD
:1034900018BF7FEA236C21D092EA030F04D092F088
:1034A000000F08BF0846704790EA010F1CBF0020BC
:1034B000704712F07F4F04D1400028BF40F0004019
:1034C000704712F100723CBF00F50000704700F039
:1034D000004343F0FE4040F4000070477FEA226260
:1034E00016BF08467FEA23630146420206BF5FEA31
:1034F000412390EA010F40F4800070474FF0000331
:1035000004E000BF10F0004348BF40425FEA000CF7
:1035100008BF704743F0964301464FF000001CE09F
:1035200050EA010208BF70474FF000030AE000BFF5
:1035300050EA010208BF704711F0004302D5404233
:1035400061EB41015FEA010C02BF844601460020A5
:1035500043F0B64308BFA3F18053A3F50003BCFAC0
:103560008CF2083AA3EBC25310DB01FA02FC63446D
:1035700000FA02FCC2F12002BCF1004F20FA02F274
:1035800043EB020008BF20F00100704702F1200267
:1035900001FA02FCC2F1200250EA4C0021FA02F2C8
:1035A00043EB020008BF20EADC7070474FF0FF0CCD
:1035B0001CEAD0521EBF1CEAD15392EA0C0F93EAC8
:1035C0000C0F6FD01A4480EA010C400218BF5FEA6A
:1035D00041211ED04FF0006343EA501043EA5111DD
:1035E000A0FB01310CF00040B1F5000F3EBF4900D7
:1035F00041EAD3715B0040EA010062F17F02FD2ADB
:103600001DD8B3F1004F40EBC25008BF20F00100BD
:10361000704790F0000F0CF0004C08BF49024CEAD4
:10362000502040EA51207F3AC2BFD2F1FF0340EA66
:10363000C250704740F400004FF00003013A5DDCD7
:1036400012F1190FDCBF00F000407047C2F1000218
:10365000410021FA02F1C2F1200200FA02FC5FEA05
:10366000310040F1000053EA4C0308BF20EADC704F
:10367000704792F0000F00F0004C02BF400010F4C1
:10368000000F013AF9D040EA0C0093F0000F01F06E
:10369000004C02BF490011F4000F013BF9D041EA90
:1036A0000C018FE70CEAD15392EA0C0F18BF93EA92
:1036B0000C0F0AD030F0004C18BF31F0004CD8D1BC
:1036C00080EA010000F00040704790F0000F17BF43
:1036D00090F0004F084691F0000F91F0004F14D089
:1036E00092EA0C0F01D142020FD193EA0C0F03D1E1
:1036F0004B0218BF084608D180EA010000F00040E4
:1037000040F0FE4040F40000704740F0FE4040F4BE
:10371000400070474FF0FF0C1CEAD0521EBF1CEA5D
:10372000D15392EA0C0F93EA0C0F69D0A2EB03027B
:1037300080EA010C49024FEA402037D04FF0805315
:1037400043EA111143EA10130CF000408B4238BFDA
:103750005B0042F17D024FF4000C8B4224BF5B1AE8
:1037600040EA0C00B3EB510F24BFA3EB510340EA36
:103770005C00B3EB910F24BFA3EB910340EA9C00E4
:10378000B3EBD10F24BFA3EBD10340EADC001B0154
:1037900018BF5FEA1C1CE0D1FD2A3FF650AF8B42F8
:1037A00040EBC25008BF20F0010070470CF0004C05
:1037B0004CEA50207F32C2BFD2F1FF0340EAC25030
:1037C000704740F400004FF00003013A37E792F0F1
:1037D000000F00F0004C02BF400010F4000F013A4F
:1037E000F9D040EA0C0093F0000F01F0004C02BF4A
:1037F000490011F4000F013BF9D041EA0C0195E7B3
:103800000CEAD15392EA0C0F08D142027FF47DAF4B
:1038100093EA0C0F7FF470AF084676E793EA0C0F3B
:1038200004D14B023FF44CAF08466EE730F0004C39
:1038300018BF31F0004CCAD130F000427FF45CAFC9
:1038400031F000437FF43CAF5FE700BF4FF0FF3C37
:1038500006E000BF4FF0010C02E000BF4FF0010C8A
:103860004DF804CD4FEA40024FEA41037FEA226C53
:1038700018BF7FEA236C11D001B052EA530C18BF75
:1038800090EA010F58BFB2EB030088BFC81738BFDA
:103890006FEAE17018BF40F0010070477FEA226CC8
:1038A00002D15FEA402C05D17FEA236CE4D15FEAC4
:1038B000412CE1D05DF8040B704700BF84460846F8
:1038C0006146FFE70FB5FFF7C9FF002848BF10F1B9
:1038D000000F0FBD4DF808EDFFF7F4FF0CBF0120FE
:1038E00000205DF808FB00BF4DF808EDFFF7EAFF88
:1038F00034BF012000205DF808FB00BF4DF808ED43
:10390000FFF7E0FF94BF012000205DF808FB00BF37
:103910004DF808EDFFF7D2FF94BF012000205DF8BD
:1039200008FB00BF4DF808EDFFF7C8FF34BF0120CA
:1039300000205DF808FB00BF4FEA4002B2F1FE4FE5
:103940000FD34FF09E03B3EB12620DD94FEA002361
:1039500043F0004310F0004F23FA02F018BF40423A
:1039600070474FF00000704712F1610F01D1420221
:1039700005D110F0004008BF6FF0004070474FF0D5
:103980000000704773B96AB9002908BF0028BCBF9E
:1039900000204FF00041C4BF6FF000414FF0FF30F6
:1039A00000F03CB882B0EC462DE9005000F006F87B
:1039B000DDF804E002B00CBC704700BF2DE9704F89
:1039C000089E14461D468046894600F029F804FBEF
:1039D00001F3A4FB00AB00FB05329344B8EB0A08EB
:1039E00069EB0B09C6E90089BDE8708F2DE9704FBE
:1039F000089E14461D468046894600F061F900FB8A
:103A000005F5A0FB04AB04FB0154A344B8EB0A0882
:103A100069EB0B09C6E90089BDE8708F704700BFEC
:103A200000292DE9F00FC0F2A1800024002BC0F284
:103A30009880154606460F46002B3FD18A4258D93A
:103A4000B2FA82F34BB1C3F1200201FA03F720FA74
:103A500002F29D4000FA03F61743290CB7FBF1F27E
:103A600001FB1277A8B200FB02F34FEA164C4CEAB6
:103A70000747BB4209D97F1902F1FF3C80F005815D
:103A8000BB4240F20281023A2F44FF1AB7FBF1F326
:103A900001FB137100FB03F0B6B246EA0141884214
:103AA00008D9491903F1FF3780F0F180884240F2CC
:103AB000EE80023B43EA0242002303E08B420AD934
:103AC00000231A461046194614B1404261EB4101E9
:103AD000BDE8F00F7047B3FA83F8B8F1000F40F07B
:103AE00088808B4202D3824200F2E28000230122CE
:103AF000E8E712B90123B3FBF2F5B5FA85F2002A23
:103B00003AD17F1B280C1FFA85FC0123B7FBF0F18B
:103B100000FB11770CFB01F24FEA164848EA074711
:103B2000BA4207D97F1901F1FF3802D2BA4200F236
:103B3000C4804146BF1AB7FBF0F200FB12700CFBC9
:103B400002FCB6B246EA0040844507D9401902F1AA
:103B5000FF3702D2844500F2AE803A4642EA014283
:103B6000B0E7E443524263EB430362E7404261EB58
:103B700041014FF0FF3459E79540C2F1200927FA7F
:103B800009F126FA09F99740280CB1FBF0F800FB7F
:103B900018111FFA85FC0CFB08F349EA07094FEAE4
:103BA000194747EA01418B4206FA02F608D949193A
:103BB00008F1FF327AD28B4278D9A8F10208294461
:103BC000C91AB1FBF0F300FB13170CFB03F21FFA49
:103BD00089F949EA0747BA4207D97F1903F1FF314A
:103BE00060D2BA425ED9023B2F44BF1A43EA08436F
:103BF0008CE7C8F1200225FA02F103FA08FC27FA43
:103C000002F320FA02F207FA08F741EA0C0C4FEA35
:103C10001C49B3FBF9F109FB11331FFA8CFA0AFBBB
:103C200001FB17433A0C42EA03439B4505FA08F0AF
:103C300008D913EB0C0301F1FF3235D29B4533D980
:103C400002396344CBEB0303B3FBF9F209FB1233F4
:103C50000AFB02FABFB247EA0347BA4508D917EB95
:103C60000C0702F1FF331BD2BA4519D9023A674457
:103C700042EA0145A5FB0001CAEB07078F424FF05E
:103C800000030AD305D02A461CE76246FDE63B4600
:103C900010E706FA08F68642F5D26A1E002311E7FD
:103CA0001A46E5E70B46A0E71146CBE7904687E7C3
:103CB0004346424606E7023A50E702392F4439E7C5
:103CC0002DE9F00F144605460E46002B43D18A42DB
:103CD00053D9B2FA82F757B1C7F1200620FA06F697
:103CE00001FA07F302FA07F400FA07F51E43210C64
:103CF000B6FBF1F201FB1266A0B200FB02F32F0C3F
:103D000047EA0646B34209D9361902F1FF3780F077
:103D1000FD80B34240F2FA80023A2644F61AB6FB1E
:103D2000F1F301FB136100FB03F0ADB245EA014181
:103D3000884208D9091903F1FF3680F0E9808842EA
:103D400040F2E680023B43EA024200231046194655
:103D5000BDE8F00F70478B424CD8B3FA83F6002EC3
:103D60004FD18B4202D3824200F2DD80BDE8F00FDA
:103D70000023012210461946704712B90124B4FBF2
:103D8000F2F4B4FA84F2002A40F08280091B260C77
:103D9000A7B20123B1FBF6F006FB101107FB00F2FE
:103DA0004FEA154C4CEA01418A4207D9091900F142
:103DB000FF3C02D28A4200F2C8806046891AB1FBF9
:103DC000F6F206FB121107FB02F7ADB245EA014518
:103DD000AF4208D92C1902F1FF3180F09B80A74235
:103DE00040F29880023A42EA004210461946BDE885
:103DF000F00F704700231A4610461946BDE8F00F31
:103E00007047C6F1200522FA05F703FA06F421FAF5
:103E100005F301FA06FB20FA05F53C434FEA144886
:103E2000B3FBF8FC08FB1C331FFA84F909FB0CFAFE
:103E300045EA0B0B4FEA1B4545EA03439A4502FA54
:103E400006F204D91B190CF1FF356FD3AC46CAEB4F
:103E50000303B3FBF8F508FB153309FB05F91FFA5B
:103E60008BFB4BEA0347B94504D93F1905F1FF33F2
:103E700062D31D4645EA0C4CACFB0223C9EB070795
:103E80009F424FF000054AD346D062462B465DE77D
:103E90009440C2F1200921FA09FC914020FA09F965
:103EA000260CBCFBF6F806FB18CCA7B207FB08F300
:103EB00049EA01094FEA194141EA0C4C634500FA0D
:103EC00002F509D91CEB040C08F1FF323BD2634523
:103ED00039D9A8F10208A444C3EB0C0CBCFBF6F3DF
:103EE00006FB13C107FB03F21FFA89F949EA0141F6
:103EF0008A4207D9091903F1FF3022D28A4220D918
:103F0000023B2144891A43EA084343E73A4605E75E
:103F1000334618E70A4666E7B0409042B5D20CF146
:103F2000FF32002312E7334632460FE79A458DD918
:103F3000ACF1020C23448AE7B9459AD9023D2744E3
:103F400098E70346DEE79046C6E70238214435E7A6
:103F5000002100F004B80B4B5B58435004310A4871
:103F60000A4B42189A42FFF4F6AF094A00F003B830
:103F7000002342F8043B074B9A42FFF4F9AF01F0EB
:103F8000F7FE7047C4FC000800000020E00100209C
:103F9000E00100203C4D0020FFF7FEBF00F10803C8
:103FA0004FF0FF3282604360C3600361002303600F
:103FB000704700230361704743685A684A6042684B
:103FC0008A605A68916059604160086103680133F2
:103FD000036070470A6810B5531C01D1036907E0FC
:103FE00000F108035C682468944201D85B68F9E733
:103FF0005A684A6091608B605960086103680133B8
:10400000036010BD436882689A60836842685A60A2
:1040100003695A68824204BF82685A6000220261C2
:104020001A68013A1A6018687047FEE710B50E4B1F
:1040300004461A6850600D4A1268904207D2BDE8E3
:1040400010400B4A106819680431FFF7C3BF094AD2
:10405000106819680431FFF7BDFF074B1A689442D6
:1040600038BF1C6010BD00BF6C020020840200201D
:1040700088020020E4010020000000202DE9F84F14
:10408000824648208846154699460A9F0C9E00F0B5
:104090000DFF0446002800F09180304616B9A800B4
:1040A00000F004FF206318B9204600F055FF85E0BA
:1040B000AD002A46A5210AF055FC236B043D2B4494
:1040C00041460A22042F34BF3D4604254FF0000B21
:1040D00004F1340004F1040823F007060AF0BCFCE4
:1040E000E5622564404684F83DB0FFF762FFC5F104
:1040F000050504F11800FFF75CFF2461A561646207
:10410000C4F844B0304651464A4600F045FF0B9B88
:10411000206003B11C6000F06BFF2A4B2A4D1A6827
:10412000DFF8C89001321A602E68E6B92C601B686F
:10413000012B20D109EB06001436FFF72FFF642E68
:10414000F8D1DFF8ACA0214E5046FFF727FF3046EC
:10415000FFF724FF1E48FFF721FF1E4BC3F800A006
:104160001D4B1E6007E01D4B1B6823B92B68DB6AE3
:10417000BB4298BF2C601A4AE36A116814208B4234
:1041800088BF1360174A00FB03901168013111606A
:10419000154A11688B42414688BF1360FFF70CFF38
:1041A00000F034FF0D4B1B682BB12B68DB6ABB4260
:1041B00001D200F00DFF0120BDE8F88F4FF0FF3075
:1041C000BDE8F88FAC0200206C020020F401002052
:1041D00070020020E401002088020020E801002095
:1041E000B0020020900200208C0200200802002073
:1041F0009402002030B5002485B00094019402940C
:1042000003940D480D4964222346FFF737FF012828
:104210000FD100F0F3FC012805460AD100F0E0FEC2
:10422000074B1D60074B1C6005B0BDE8304000F037
:1042300031BF05B030BD00BF2B400008D5EA0008F3
:10424000E801002084020020024B1A6801321A6043
:10425000704700BFEC01002010B500F0C9FE034B11
:104260001C6800F0D3FE204610BD00BF8402002071
:10427000F8B5294B1B68002B48D1284B284C1A68ED
:104280001F4601321A601A68A2B9264B264A1968DD
:10429000106818601160254A1168013111601A68B0
:1042A000126812B94FF0FF3303E01B68DB68DB686C
:1042B0005B6823603A6823689A422BD3194B1A68CB
:1042C000126812B94FF0FF3306E01B68DB68DD6847
:1042D0003A686B689A4201D22360F8BD2E1D3046C1
:1042E000FFF790FEAB6A1BB105F11800FFF78AFEDD
:1042F0000F4BEA6A196814208A4288BF1A600D4B76
:10430000314600FB0230FFF757FED7E70A4B1A6829
:1043100001321A60F8BD00BFEC01002084020020C9
:1043200000000020E401002088020020F0010020AD
:104330008C02002008020020E001002070B500F08F
:1043400057FE264B1A68013A1A601D680DB1002409
:1043500040E0234B1B68002BF9D0224B1A68F2B1C6
:10436000DB68DC68261D04F11800FFF74BFE3046C1
:10437000FFF748FE1C4AE36A116814208B4288BF8D
:1043800013601A4A314600FB0320FFF715FE184B55
:10439000E26A1B68DB6A9A4228BF0125DDE7154BFC
:1043A0001A681E4642B13368124C3BB1FFF760FFFA
:1043B0002368013B2360F6E7012D06D10E4B002256
:1043C0001A60012400F004FE04E00B4B1B68012B73
:1043D000BDD1F3E700F01AFE204670BDEC010020CD
:1043E000AC020020700200208C0200200802002095
:1043F0006C020020E0010020A802002038B50C4625
:104400000546FFF721FF134A2B6811681C449942A7
:1044100002D29C4208D201E09C4207D313689C421E
:1044200094BF0023012302E0002300E001232C605D
:104430003BB1094B18680430FFF7E4FD2046FFF755
:10444000F5FDFFF77BFF18B9BDE8384000F0C0BDAF
:1044500038BD00BF840200206C02002010B5044665
:1044600018B9BDE8104000F0B3BDFFF7EDFE084BF2
:104470001B681C44074B18680430FFF7C3FD204637
:10448000FFF7D4FDFFF75AFF0028EAD010BD00BFA8
:10449000840200206C02002038B50D46044608B99D
:1044A000044B1C6800F0A4FD6564BDE8384000F0D2
:1044B000ADBD00BF6C02002010B5194B1B681BB1CD
:1044C000184B01221A6010BD174C2268236812682D
:1044D0001B6B9A4204D820682168343104F032FA08
:1044E000124A1423106812495843085818B913681F
:1044F000013B1360F4E7126803FB02135A6803F1EF
:10450000080152685A608A4204BF52685A605B6868
:10451000DB6823602368BDE81040586C04F01CBAC7
:10452000EC010020A80200206C0200208C02002078
:104530000802002038B5084C0D4621681831FFF7F5
:1045400049FD20680430FFF75DFD044B18682844DE
:10455000BDE83840FFF76ABD6C02002084020020ED
:1045600038B5084C0D4621681831FFF725FD206845
:104570000430FFF747FD044B18682844BDE8384075
:10458000FFF754BD6C0200208402002038B5C368D8
:10459000DC6804F118052846FFF734FD0F4B1B6853
:1045A00073B9251D2846FFF72DFD0D4AE36A1168F2
:1045B00014208B4288BF13600A4A00FB032000E0EE
:1045C00009482946FFF7F8FC084BE06A1B68DB6ADC
:1045D000984234BF0020012038BD00BFEC0100200C
:1045E0008C02002008020020700200206C020020D3
:1045F000034B1B680360034B1B684360704700BF9D
:10460000F00100208402002038B504460D4600F079
:10461000EFFC0F4B1A6823689A420E4A636802D077
:10462000116899420ED211682A68C91A914209D2BA
:1046300008492046096800245B1A1A442A60FFF7DB
:10464000D7FF00E0012400F0E1FC204638BD00BFA8
:10465000F001002084020020014B01221A60704703
:10466000A8020020014B1868704700BF6C020020B0
:10467000044B186828B1044B1B68002B14BF0220A0
:1046800001207047E8010020EC010020F8B5044645
:1046900048B3154DC36A2A68D26A934223D22A6866
:1046A000D26AC2F1050282611048142202FB0303A0
:1046B000626907469A4213D1261D3046FFF7A2FCD5
:1046C0002B680B4ADB6A1168E3628B4288BF136078
:1046D000142000FB03703146BDE8F840FFF76CBCC6
:1046E0002B68DB6AE362F8BD6C0200200802002040
:1046F0008C02002038B50446D0B1C26A036C9A42DD
:1047000016D0051D2846FFF77DFC236C1420C3F14D
:104710000502A261074AE36211688B4288BF1360F9
:10472000054A294600FB0320BDE83840FFF744BC9A
:1047300038BD00BF8C0200200802002038B51346A7
:10474000026C044632B9056805BB4068FFF7D2FF2A
:1047500065601BE063B98068FEF7DAF8A268236C35
:1047600013446268A360934210D32368A3600DE0F2
:10477000C068FEF7CDF8236CE2685B4221681A44FA
:104780008A42E26002D262681344E360A36B0133A1
:10479000A36338BD70B5046803466CB1C568026C8C
:1047A00046681544B542C56028BFC460BDE8704086
:1047B0000846D968FEF7ACB870BD10B5044600F0E5
:1047C00017FCA36C002B0CDD636A53B104F12400C9
:1047D000FFF7DCFE08B1FFF73FFFA36C013BA364CA
:1047E000EFE74FF0FF33A36400F010FC00F000FC93
:1047F000636C002B0CDD236953B104F11000FFF74B
:10480000C5FE08B1FFF728FF636C013B6364EFE767
:104810004FF0FF336364BDE8104000F0F7BB38B5DC
:1048200004460D4600F0E4FB226CE06B2368504325
:10483000821A1918A36013446160E36000214FF0ED
:10484000FF33A1636364A36455B9236983B104F1A1
:104850001000FFF79BFE01280AD100F0B9FB07E02A
:1048600004F11000FFF79AFB04F12400FFF796FB18
:1048700000F0CCFB012038BDF8B50F46054608B95D
:10488000002418E04C2000F011FB04460028F7D06B
:1048900007FB05F0013000F009FB0646206030B14F
:1048A000E563276420460121FFF7B9FF03E02046B6
:1048B00000F052FB34462046F8BD2DE9FF41044686
:1048C0000F4601929846002500F092FBA26BE36B25
:1048D0009A4212D2204639464246FFF72FFF636ABA
:1048E0003BB104F12400FFF751FE012801D100F093
:1048F0006FFB00F08BFB012043E0019E16B900F036
:1049000085FB3DE015B902A8FFF772FE00F07EFBC3
:10491000FFF79AFC00F06CFB636C013304BF0023CB
:104920006364A36C013304BF0023A36400F06EFB37
:1049300002A801A9FFF768FEE8B900F059FBA66BD1
:10494000E56B00F063FBAE420FD104F1100001995A
:10495000FFF7F0FD2046FFF730FFFFF7EFFC08B14F
:104960000125B1E700F034FBFAE72046FFF725FF09
:10497000FFF7E4FCF4E72046FFF71FFFFFF7DEFC3C
:10498000002004B0BDE8F08138B54C2000F08EFA6C
:104990000446C8B101230025C3634FF0FF3385638C
:1049A00045604364056083648560C56005641030BC
:1049B000FFF7F4FA04F12400FFF7F0FA2046294645
:1049C0002A462B46FFF779FF204638BD2DE9F041F6
:1049D000044698460F46154600F002FBA36B0646B8
:1049E000E06B834217D2204639464246FFF7A6FEC7
:1049F000A36C01330AD1636A5BB104F12400FFF7B1
:104A0000C5FD30B12DB101242C6005E0A36C01334C
:104A1000A364012400E00024304600F0F3FA2046AD
:104A2000BDE8F0812DE9FF4104460F46019298460A
:104A3000002500F0DDFAA36B3BB320463946E5685C
:104A4000FFF7A8FEB8F1000F12D1A36B013BA363DF
:104A5000236813B9FFF706FE606023698BB104F188
:104A60001000FFF793FD01280BD100F0B1FA08E028
:104A7000636AE5602BB104F12400FFF787FD00288D
:104A8000F3D100F0C3FA01204AE0019E16B900F00C
:104A9000BDFA44E015B902A8FFF7AAFD00F0B6FA86
:104AA000FFF7D2FB00F0A4FA636C013304BF0023CC
:104AB0006364A36C013304BF0023A36400F0A6FA6F
:104AC00002A801A9FFF7A0FD20BB00F091FAA56B99
:104AD00000F09CFAC5B9236833B900F089FA606820
:104AE000FFF7D4FD00F092FA04F124000199FFF7DA
:104AF00021FD2046FFF761FEFFF720FC08B10125EC
:104B000097E700F065FAFAE72046FFF756FEFFF751
:104B100015FCF4E72046FFF750FEFFF70FFC0020DE
:104B200004B0BDE8F08110B5044600F061FAA46B52
:104B300000F06CFA204610BD38B504460D4600F072
:104B400057FA636C013304BF00236364A36C013321
:104B500004BF0023A36400F059FAA36B23B904F146
:104B600024002946FFF7FCFC2046BDE83840FFF74B
:104B700024BE0000F8B50D4C00F03AFA25688DB956
:104B80000B4F0C4E3846FFF709FA3046FFF706FA8E
:104B9000094B14201F60094B0C212A461E60FFF7A9
:104BA0006BFE2060BDE8F84000F030BAE40200205F
:104BB000B8020020CC020020B4020020E80200204D
:104BC00010B5914204464160206105D88169D21A2E
:104BD0008A420CD2074B04E09A4201D2994206D293
:104BE000054B1868211DFFF7F5F9002010BD0120C5
:104BF00010BD00BFE8020020B40200201FB5FFF77F
:104C0000B9FF084B1868002348B101228DE80C0059
:104C100002930393044805496422FFF72FFA05B075
:104C20005DF804FBE4020020114D0008DAEA0008F8
:104C30002DE9F041804617461E460D4689B12820D1
:104C400000F034F9044668B1FFF794FF069BC4F8FE
:104C50000080A561E76126626362201DFFF7A9F964
:104C600000E00C462046BDE8F08100007FB50F4D06
:104C7000064628681C46B0B10191029203966BB9B2
:104C8000FFF7F6FC012818BF2246286801A906BFD5
:104C9000089A23461346FFF710FE04E01A4601A9BE
:104CA0000023FFF793FE04B070BD00BFE4020020B4
:104CB000F7B5154E33681A6802B3DA681568DB6811
:104CC000DC68271D3846FFF79DF9636A2046984740
:104CD000E369012BEDD1A3692B44AB4206D9636094
:104CE000246130683946FFF775F9E2E70021009149
:104CF00020462A460B46FFF7B9FFDAE7034A116858
:104D00001360316003B0F0BDB4020020E80200205F
:104D10002DE9F04786B0DFF840A1DAF800301A68D4
:104D2000D2F1010938BF4FF00009B9F1000F02D1EB
:104D3000DB681D6800E00025FFF786FAFFF78CFAB4
:104D4000434C06462368A046984203D2FFF7B0FFC3
:104D5000012300E0002326603E4F7BBBB9F1000F2A
:104D600022D1B54220D8FFF7E9FADAF80030DB6843
:104D7000DC68201DFFF746F9E369012B10D1A1691A
:104D80002046294432462B46FFF71AFF012807D157
:104D9000CDF80090204649462A464B46FFF766FF6D
:104DA000636A2046984723E03868A91BFFF7C4FED2
:104DB000FFF7C4FAE0B900F00BF919E0FFF7BEFA0B
:104DC00016E0059C636913B1201DFFF71BF9FFF77F
:104DD00043FAD8F800300646984201D2FFF768FF40
:104DE000039DC8F80060022D24D0032D2BD045B1BF
:104DF0000022386803A91346FFF714FE0028E0D10B
:104E000089E7049BA169204619443246FFF7D8FE82
:104E10000128EDD1636A20469847E369012BE7D169
:104E2000A269049B00951A44204629462B46FFF7A9
:104E30001DFFDDE704992046A16132463144334627
:104E4000FFF7BEFED4E7204600F086F8D0E700BFAB
:104E5000E0020020E4020020B4020020006A704753
:104E600010B5104B1A68824201D21346FAE759680E
:104E70005C18844203D14068014459601846416877
:104E80004418944208D1084C2468A24204D05268C5
:104E9000114441601A6812688342026018BF1860AA
:104EA00010BD00BFF0020020EC02002070B50446E7
:104EB000FFF7CAF92448016891B9244B244A23F02A
:104EC00007031360516003F56A52516011604FF49B
:104ED0006A511A6059601F4B02601A68103A1A60D2
:104EE0002CB1103463071CBF24F007040834621E81
:104EF00043F68E239A4221D8154B1D686A68A24258
:104F000003D30268954206D118E02A68002AF8D037
:104F10002B461546F2E72A681E681A606B68103641
:104F20001B1B202B04D9281943606C60FFF798FFE6
:104F3000084B69681A68521A1A6000E00026FFF7E9
:104F4000FDF9304670BD00BFEC02002000030020D8
:104F5000F00200200400002010B5044678B1FFF7ED
:104F600073F9074B54F80C1C1A68A4F110000A449A
:104F70001A60FFF775FFBDE81040FFF7DFB910BDFD
:104F80000400002003480068006880F3088862B6C7
:104F900000DF00BF08ED00E04FF0807300E90A0079
:104FA000002340F80C3C40F8202C403870470000AB
:104FB000064B19680868B0E8F00F80F309884FF0D5
:104FC000000080F311884EF00D0E70476C02002037
:104FD000024B4FF080521A60704700BF04ED00E0B2
:104FE000EFF311804FF08F0181F31188704700209B
:104FF00008B5FFF7F5FF024B1A6801321A6008BDC9
:105000000800002080F3118870470000034B1868E7
:105010000138186008B9FFF7F5BF70470800002095
:10502000EFF309800C4B1A6820E9F00F10602DE9AE
:1050300008404FF08F0080F31188FFF73DFA4FF0E2
:10504000000080F31188BDE8084019680868B0E8DE
:10505000F00F80F3098870476C02002008B5064BFA
:105060004FF080521A60FFF7BBFFFFF701F9BDE870
:1050700008400020FFF7C6BF04ED00E0034A044BE0
:105080001A60072243F8042C704700BF3F19010043
:1050900014E000E010B5094B00241A6842F47F02C6
:1050A0001A601A6842F07F421A60FFF7E7FF044B6C
:1050B0001C60FFF767FF204610BD00BF20ED00E039
:1050C0000800002040F0BF60024B40F40030D86080
:1050D000704700BF00ED00E0C27810B50378FAB168
:1050E000154A4478D26803F16043D243C2F30222E6
:1050F000C2F1040104FA01F10F2424FA02F28478C7
:1051000003F5614322400A431201D2B283F800231F
:1051100003780122590903F01F0302FA03F306E0A2
:105120005909012203F01F0302FA03F32031034A55
:1051300042F8213010BD00BF00ED00E000E100E0CA
:1051400008B5134B984207D14FF40070012100F0CD
:1051500027FC4FF4007014E00E4B984207D14FF437
:105160008060012100F01CFC4FF4806009E00A4BD4
:1051700098420BD14FF40040012100F011FC4FF494
:1051800000400021BDE8084000F00ABC08BD00BF97
:105190000024014000280140003C014043680A68A7
:1051A00023F4702323F4807313430A7910B543EA80
:1051B00002234360CB688A6884681A43084B234003
:1051C00013434A7943EA420383600B7CC26A013B82
:1051D00022F47002DBB242EA0353C36210BD00BF87
:1051E000FDF7F1FF836811B143F0010301E023F003
:1051F000010383607047836811B143F4807301E059
:1052000023F4807383607047836843F008038360EE
:1052100070478068C0F3C0007047836843F00403A0
:10522000836070478068C0F380007047092970B5BB
:105230000DD9A1F10A0404EB44040725A540A340BD
:10524000C66826EA050545EA0304C4600BE001EBE5
:1052500041040725A54003FA04F4066926EA05057A
:1052600045EA04030361062A0CD8013A02EB8202E4
:105270001F23934001FA02F2446B24EA03031A430A
:10528000426370BD0C2A0CD8073A02EB82021F233E
:10529000934001FA02F2046B24EA03031A43026307
:1052A00070BD0D3A02EB82021F23934001FA02F215
:1052B000C46A24EA03031A43C26270BD836811B151
:1052C00043F4801301E023F48013836070470000EF
:1052D000044B9A6810B142F4000201E022F400028B
:1052E0009A60704700240140044B5A6809B110438A
:1052F00001E022EA00005860704700BF002004E08F
:10530000036823F0010303600023036043608360AC
:10531000C3602A4B984222D0294B984229D0294B6E
:10532000984230D0284B984237D0284B98423ED0F4
:10533000274B984206D153F8682C42F4700243F888
:10534000682C7047234B984206D153F87C2C42F0CE
:10535000706243F87C2C70471F4B984206D153F87B
:10536000042C42F00F0243F8042C70471B4B984268
:1053700006D153F8182C42F0F00243F8182C70476D
:10538000174B984206D153F82C2C42F4706243F824
:105390002C2C7047134B984206D153F8402C42F402
:1053A000704243F8402C70470F4B984205D153F898
:1053B000542C42F4702243F8542C704708000240E9
:1053C0001C000240300002404400024058000240ED
:1053D0006C00024080000240080402401C040240AD
:1053E0003004024044040240580402408A6810B568
:1053F0000C6A036814430A6923F4FF4314434A699F
:1054000023F0700314438A691443CA6914434A6A37
:1054100014438A6A224313430360CB6843600B68DA
:1054200083604B68C36010BD036811B143F0010392
:1054300001E023F001030360704703680AB11943D8
:1054400001E023EA0101016070470000C3004CBF86
:10545000014B024B586070470004024000000240BC
:10546000C3004CBF034B044B1B6803420CBF00201E
:10547000012070470004024000000240C3004CBFFE
:10548000014B024B5860704700040240000002408C
:10549000837910B50268002B2FD01D4B196821EAC3
:1054A00002021A605968026821EA02025A6002790F
:1054B000016802F1804202F58232146821431160D2
:1054C0009968026821EA02029A60D968026821EAB2
:1054D0000202DA6041790268102907D199680A430B
:1054E0009A60D96802680A43DA6010BD01F180430E
:1054F00003F5823319680A4307E0037903F1804317
:1055000003F58233196821EA02021A6010BD00BF58
:1055100000040140054B1A685B69034004D0104247
:105520000CBF00200120704718467047000401405E
:10553000014B5861704700BF00040140034B1A68DB
:1055400002F0380210431860704700BF002002408C
:10555000044B1A6822F010021A601A68104318608F
:10556000704700BF00200240CB78F0B503F00F0475
:10557000DB0644BF8B781C430B78DBB10268002349
:1055800001269E400D883540B5420FD19E000F2761
:10559000B74004FA06F622EA07023243CE78282EF4
:1055A00001D1456102E0482E08BF05610133082B97
:1055B000E6D102600B88FF2B1DD94268002303F15E
:1055C00008050126AE400D883540B5420FD19E003A
:1055D0000F27B74004FA06F622EA07023243CE78D4
:1055E000282E08BF4561CE78482E08BF05610133DB
:1055F000082BE4D14260F0BD836819420CBF002043
:1056000001207047016170474161704730B5134A0E
:1056100000F44015B5F5401F536884B206D15568B3
:1056200023F0706325F0706555600FE0C20205D568
:10563000C0F30342032505FA02F203E0420D120112
:1056400004FA02F223EA020343F0706319B1400D39
:10565000000184402343014A536030BD00000140F3
:1056600001F003039B000F229A40984010B501F00F
:10567000FC0101F1804101F580318C6824EA0202CD
:105680008A608A6802438A6010BD000008B50B4B2F
:10569000984207D14FF40010012100F08DF94FF42A
:1056A000001006E04FF48000012100F085F94FF46E
:1056B00080000021BDE8084000F07EB900540040A1
:1056C000F0B587B00446868801A80D46314F00F03A
:1056D000FBF8039826F03F063604B0FBF7F7360CCC
:1056E0001FFA87FC4CEA0606A68021882A4B21F087
:1056F00001010904090C21802A689A420DD853003F
:10570000B0FBF3F39BB20CF1010C032B1FFA8CFCE2
:1057100098BF0423A4F820C022E0E9884BF6FF7369
:10572000994205D102EB4202B0FBF2F39BB206E0D4
:1057300019235343B0FBF3F39BB243F48043C3F309
:105740000B020AB943F001034FF4967257434FF42A
:105750007A7297FBF2F70137BFB243F40043278414
:10576000A38323889BB243F00103238023886989A4
:1057700023F48163AA8823F002031B040A431B0C51
:1057800013439BB223802A89AB8913439BB22381A5
:1057900007B0F0BD40420F00A0860100038829B188
:1057A0006FEA43436FEA53439BB201E0C3F30E0336
:1057B00003807047C94389B2818270470D4B1A68D4
:1057C00042F001021A6059680B4A0A405A601A688E
:1057D00022F0847222F480321A601A6822F4802245
:1057E0001A605A6822F4FE025A604FF41F029A604F
:1057F000704700BF001002400000FFF80C4BB0F5EE
:10580000803F1A6822F480321A601A6822F48022DB
:105810001A6003D0B0F5802F04D070471A6842F4A4
:10582000803202E01A6842F4A0221A60704700BF7A
:1058300000100240034B5A6822F47C1211430843C3
:105840005860704700100240014B1860704700BF5D
:1058500060004242034B5A6822F003021043586032
:10586000704700BF00100240024B586800F00C0067
:10587000704700BF00100240034B5A6822F0F0024C
:1058800010435860704700BF00100240034B5A6835
:1058900022F4E06210435860704700BF00100240DD
:1058A000034B5A6822F4605242EAC00058607047C5
:1058B00000100240034B5A6822F4404210435860E3
:1058C000704700BF0010024010B51D4B5A6802F02F
:1058D0000C02042A03D0082A03D01A4A11E01A4AFB
:1058E0000FE05A685968C2F38342CC0302F1020206
:1058F00001D4164904E0596889034CBF1149124983
:105900004A4302605A681249C2F303128C5C02686F
:10591000E24042605C68C4F302240C5D22FA04F4A5
:1059200084605C68C4F3C224095DCA40C2605B68DD
:105930000849C3F38133CB5CB2FBF3F2026110BDC3
:105940000010024000127A000024F40000093D001B
:10595000100000200C000020044B5A6909B11043CC
:1059600001E022EA00005861704700BF00100240C9
:10597000044B9A6909B1104301E022EA00009861E2
:10598000704700BF00100240044BDA6909B11043B0
:1059900001E022EA0000D861704700BF0010024019
:1059A000044BDA6809B1104301E022EA0000D86034
:1059B000704700BF00100240044B1A6909B1104340
:1059C00001E022EA00001861704700BF00100240A9
:1059D000014B1870704700BF071002404309012BAC
:1059E000074A01D1136803E0022B0CBF136A536A04
:1059F00000F01F0023FA00F000F00100704700BF24
:105A00000010024007B5002301933120FFF7E6FFA5
:105A1000019B01330193019BB3F5A06F01D00028D6
:105A2000F3D03120FFF7DAFF003018BF012003B0B8
:105A30005DF804FB0B8810B54C88028823438C88E2
:105A400002F441522343CC8823430C8923434C89DD
:105A500023438C892343CC89234313439BB2038084
:105A6000838B23F400631B041B0C83830B8A038248
:105A700010BD038819B19BB243F0400303E023F04B
:105A800040031B041B0C0380704781817047808991
:105A900080B27047038919420CBF00200120704773
:105AA000038803F08F0303800388CA889BB21343E3
:105AB0004A8813439BB203808B8883850B880385B8
:105AC000054B984203D003F50063984201D10B7A4D
:105AD0000386012383827047002C0140038C30B57C
:105AE00023F010031B041B0C0384038C8288048B9B
:105AF0000D8824F4E6442404240C23F0200344EA13
:105B000005241B040D891B0C43EA05134D8892B232
:105B100043EA0513124DA4B2A8429BB203D005F587
:105B20000065A84216D14D8923F080039BB243EA59
:105B300005134FF6BF751D408B8845EA031347F2E6
:105B4000FF3515408A899BB245EA8205CA8945EA34
:105B5000820292B282800483CA880287038430BDA5
:105B6000002C0140038C30B523F480731B041B0C04
:105B70000384038C8288848B0D8824F073042404AE
:105B8000240C23F400732C431B040D891B0C43EAE3
:105B900005234D8892B243EA0523124D9BB2A842D9
:105BA00003D005F50065A84216D14D8923F40063A2
:105BB0009BB243EA05234FF6FF351D408B8845EA2B
:105BC000032344F6FF7515408A899BB245EA021506
:105BD000CA8945EA021292B282808483CA88828787
:105BE000038430BD002C0140038C30B523F4805376
:105BF0001B041B0C0384038C8488828B0D8822F485
:105C0000E6421204120C23F4005342EA05221B045C
:105C10000D891B0C43EA05334D88A4B243EA0533D2
:105C20000A4D92B2A8429BB203D005F50065A84286
:105C300005D18D89C4F30D0444EA8514A4B284808F
:105C40008283CA88A0F84020038430BD002C014024
:105C5000038819B19BB243F0010303E023F0010371
:105C60009B059B0D03807047B0F8443029B16FEA63
:105C700043436FEA53439BB201E0C3F30E03A0F822
:105C80004430704783899BB20AB1194301E023EA8B
:105C9000010181817047038B23F400631B041B0CFB
:105CA00043EA01218BB203837047838B23F00803FF
:105CB0001B041B0C194381837047838B23F40063FF
:105CC0001B041B0C43EA01218BB28383704781873D
:105CD0007047A0F840107047C94389B201827047ED
:105CE000C1F3421310B5012401F01F01A34204FACD
:105CF00001F101D10C3003E0022B0CBF1030143045
:105D000003680AB1194301E023EA0101016010BDF3
:105D1000C1F30801818070478088C0F30800704794
:105D200010B5C1F3421401F01F030122012C02FA45
:105D300003F201D1838903E0022C0CBF038A838A1A
:105D40009BB21340028892B243B10123090A03FABD
:105D500001F111420CBF0020012010BD184610BDFA
:105D6000090A01238B40DB439BB20380704700008C
:105D700013B5FFF723FD4FF48030FFF73FFDFFF72A
:105D800041FE0128044629D11020FFF7E1FB022043
:105D9000FFF7D4FB0020FFF76FFD0020FFF780FD29
:105DA0004FF48060FFF772FD4FF40040FFF782FD73
:105DB0004FF440304FF4E011FFF73CFD2046FFF771
:105DC00043FD3920FFF70AFE0028FAD00220FFF732
:105DD00041FDFFF749FD0828FBD115E03023ADF860
:105DE0000430012410230D4801A98DF807308DF8E7
:105DF0000640FFF7B9FB09480021FFF705FC0748FB
:105E00002146FFF701FCFEE700F08AFC03F006FCE8
:105E100003F042FCFEF7EEF9FEE700BF000C014084
:105E20000A4A034652F820200948012A08BF81F097
:105E30000101084A50F8230019B132F82310FFF786
:105E4000E1BB32F82310FFF7DFBB00BFE4EA000834
:105E5000F4EA0008ECEA000873B5114E3478ECB9A6
:105E600009200121FFF784FD0E480121FFF7CEFB39
:105E700030230125ADF804300B48102301A98DF81B
:105E800007308DF80650FFF76FFB28462146FFF7D5
:105E9000C7FF20462146FFF7C3FF357002B070BD33
:105EA000903D002000013000000C0140014B1878AB
:105EB000704700BF903D0020022801D8FFF7B0BF17
:105EC0007047000070B5284840F22771FFF728FF9F
:105ED00000282FD0254D264E2B7832789A421BD998
:105EE000244C2148E15CFFF713FF2B783278013313
:105EF000DBB2013A93422B701CDA012B1AD91E4AED
:105F0000E35C1278A15C0B44FF2193FBF1F1C1EB40
:105F100001215B1AA3540DE0134840F227710022BF
:105F2000FFF7DEFE154B0021154A18680B4611607D
:105F3000FEF74CFD0C4840F22771FFF711FF0A48AD
:105F400040F22551FFF7ECFE60B10748FFF7E4FE91
:105F50000C490D4B08700A4A1868BDE870400023D0
:105F6000FEF734BD70BD00BF00480040A03D0020DA
:105F7000A13D0020A23D0020983D0020943D00203E
:105F80009C3D0020993D0020E43D002010B50023F9
:105F9000834207D0044A14882406FBD5CC5C013325
:105FA0009480F5E710BD00BF0048004007B502A986
:105FB00041F8040D0120FFF7E9FF9DF8040003B04C
:105FC0005DF804FBF0B5724B99B01D781F46002DAB
:105FD00040F0DC8001200146FFF7D6FC40F205606E
:105FE00001210124FFF7C4FC4AF6C8734FF080403A
:105FF00006A9ADF81C30ADF81840ADF81E50ADF84C
:106000001A50FFF74DFD6023ADF824304FF080406B
:10601000022309A9ADF82C30ADF82640ADF82A408E
:10602000FFF75CFD4FF080400821FFF734FE4FF48E
:1060300000602146FFF758F921462046FFF78CFC07
:106040005448FFF75DF9544B52480D93534B0DA93B
:106050000E9310231093802312934FF40073139325
:106060004FF400631493202315934FF44053169379
:106070000F9511951795FFF7B9F921464548FFF798
:10608000D3F94748FFF75CF84FF4C02644480DA900
:106090000D968DF838408DF839500F9610958DF883
:1060A0004440FFF77BF82246112103233C48FFF7C9
:1060B000BDF83C48FFF744F84FF4602339480DA978
:1060C0000F930D968DF838408DF8395010958DF856
:1060D0004440FFF763F803210B4632482246FFF79E
:1060E000A5F82F482146FFF77DF82D48FFF78CF8DB
:1060F0002B48FFF78EF80028FAD12948FFF78DF8D2
:106100002748FFF78FF80028FAD101212448FFF72C
:10611000D5F80120FFF7DCF822480121FFF762F8EB
:106120002048FFF771F81F48FFF773F80028FAD1ED
:106130001C48FFF772F81B48FFF774F80446002864
:10614000F9D101211748FFF7B9F80B2301258DF884
:10615000143005A80C238DF815308DF816408DF8F5
:106160001750FEF7B9FF042122462846FEF784FBAC
:106170000D4B0E49186003238DE818000294039418
:106180000B4864222346FDF779FF3D7019B0F0BD3E
:10619000E83D0020080002404C240140D84A00207D
:1061A0000024014000280140184B0020FCEA0008B0
:1061B00021620008014B1878704700BFE83D0020BD
:1061C00070B50E46FCF76CFD044630460D46FCF7F4
:1061D00067FD4FF03332064BFCF7F2FE02460B46EA
:1061E00020462946FCF7ECFEFDF782F870BD00BFA3
:1061F0003333F33F08B5084806210122FFF71DF9A4
:1062000006480121FEF7F7FFBDE808404FF0804047
:106210000121FFF71DBD00BF08000240002401401E
:1062200013B500200421FEF737F94FF47A70FEF71A
:1062300015F9FFF7DFFF0F4B694618684FF0FF3283
:106240000023FEF7EFFB009B002203F12000114624
:106250005C88214433F8044B83422244F8D1D208AD
:1062600002A8C90820F8042DADF8061002F020FF9E
:10627000E1E700BF184B002007B50420FFF7F0F856
:1062800060B10420FFF7FAF80E4B02A941F8043D73
:106290000D4B6A4618680023FEF798FB0220FFF7B3
:1062A000DFF860B10220FFF7E9F8084B02A941F8D6
:1062B000043D054B6A4618680023FEF787FB03B0D0
:1062C0005DF804FBD84A0020184B0020F84A002053
:1062D00010B504460A480221FFF7DCFB0028F9D07C
:1062E00007482146FFF7D1FB05480121FFF7D2FB04
:1062F0000028F9D00248FFF7CAFBC0B210BD00BFAA
:1063000000380040F8B504460F460D484FF4805160
:106310001646FFF779F904F01F00FFF7D9FF0024B4
:106320000546B44205DAA520FFF7D2FF38550134FF
:10633000F7E703484FF48051FFF764F92846F8BDAA
:10634000000C0140F8B504460F460E484FF480514A
:106350001646FFF759F904F01F0040F02000FFF740
:10636000B7FF00240546B44204DA385DFFF7B0FFFA
:106370000134F8E703484FF48051FFF743F928460A
:10638000F8BD00BF000C014007B502AB03F8011DCA
:1063900019460122FFF7D6FF03B05DF804FB07B5ED
:1063A00001220DF10701FFF7ADFF9DF8070003B0D3
:1063B0005DF804FB38B5084C4FF480512046FFF7D8
:1063C00023F9E220FFF784FF4FF480510546204671
:1063D000FFF718F9284638BD000C014038B5084CC5
:1063E0004FF480512046FFF70FF9E120FFF770FFCF
:1063F0004FF4805105462046FFF704F9284638BD82
:10640000000C014038B50A4C4FF480512046FFF78C
:10641000FBF86020FFF75CFFA520FFF759FF4FF462
:10642000805105462046FFF7EDF8284638BD00BFED
:10643000000C01400528F8B504460F46164604D95D
:106440000F481049F82205F097F90F484FF4805192
:10645000FFF7DAF804F0070040F0A800FFF738FF74
:1064600000240546B44204DA385DFFF731FF0134F9
:10647000F8E705484FF48051FFF7C4F82846F8BD07
:1064800000EB000807EB0008000C0140F8B50746D8
:106490000E460C484FF48051FFF7B6F86120FFF725
:1064A00017FF00240546B44205DAA520FFF710FFC8
:1064B00038550134F7E703484FF48051FFF7A2F84D
:1064C0002846F8BD000C014008B5024B1B6803B11B
:1064D000984708BDEC3D0020014B1860704700BF95
:1064E000EC3D00207D28014603D80520C9B2FFF706
:1064F0004BBF7047012805D0022806D048B90620B6
:10650000262104E00620014601E006200E21FFF7C7
:106510003BBF7047052838B504460D4607D940F201
:1065200043120948094905F027F9012203E001282F
:106530008CBF0122052204F10A002946C0B2BDE841
:106540003840FFF7FFBE00BF00EB000807EB000874
:1065500020B105484FF48061FFF754B802484FF46A
:106560008061FFF751B800BF000801402DE9F047F6
:10657000DFF8388188B098F80040002C40F08D801A
:1065800000F0A0F80C200121FFF7F2F94FF4804051
:106590000121FFF7F9F903264FF4807318254048CD
:1065A0006946ADF800308DF803508DF80260FEF7B3
:1065B000DBFF4FF420433B4869464FF0040AADF837
:1065C00000308DF803508DF80260FEF7CDFF4FF4D8
:1065D000804334486946ADF800304FF480591027A5
:1065E0008DF803A0FEF7C0FF2E4869464FF40075F2
:1065F000ADF800908DF80370FEF7B6FF28486946A5
:106600008DF80260ADF800508DF803A0FEF7ACFFE6
:1066100009212046FFF724F801260C230DEB0A0080
:106620008DF8093001958DF808408DF80A60FEF765
:106630002FFF0620FFF7CCF949461A48FEF7E2FF84
:106640004FF4806916486946ADF800908DF80370E4
:10665000FEF78AFF12484946FEF7D6FF4FF48273D1
:10666000ADF80E301048072303A9ADF81C30ADF883
:106670000C40ADF81040ADF81240ADF81440ADF844
:106680001650ADF81870ADF81A40FFF7D3F9064868
:106690003146FFF7EEF988F8006008B0BDE8F087F2
:1066A00000080140000C014000380040F03D00208F
:1066B00010B5034B1C7800F01DF8204010BD00BF42
:1066C000F03D002037B50A4C237873B917228DF8B6
:1066D000042001250D2201A88DF805208DF8063033
:1066E0008DF80750FEF7F8FC257003B030BD00BFF1
:1066F000F13D0020014B1878704700BFF13D0020AC
:1067000008B54FF40070FEF705FF012807D1FFF729
:10671000DBFEBDE808404FF40070FEF709BF08BD7E
:106720004FF44070FEF7CEBC70471EF0040F0CBF54
:10673000EFF30880EFF3098000F002B87047000023
:106740002DE9F84FD0F800B0D0F804A0D0F80890A8
:10675000D0F80C80076946698569C46925492648CF
:1067600005F080F925495A46234805F07BF924496C
:106770005246214805F076F922494A461E4805F05E
:1067800071F9214942461C4805F06CF91F493A4607
:10679000194805F067F91E493246174805F062F9B5
:1067A0001C492A46144805F05DF91B492246124847
:1067B00005F058F9194B1A491A680F4805F052F9B3
:1067C000184B19491A680C4805F04CF9174B184931
:1067D0001A68094805F046F9164B17491A68064821
:1067E00005F040F9154B04481A68154905F03AF9C7
:1067F000FEE700BF1EEB0008AD5F000834EB0008A9
:106800003DEB000846EB00084FEB000858EB000892
:1068100062EB00086BEB000874EB000838ED00E059
:106820007EEB000828ED00E089EB00082CED00E08D
:1068300094EB000830ED00E09FEB00083CED00E039
:10684000AAEB0008FEE7FEE7FEE77047FFF714BD7E
:10685000704700F0C9BE00F0C7BE00F09FBE00F058
:106860009DBEFFF74DBFFFF72DBB000008B50848E0
:106870000121FFF731FA074BBFF35F8F53E8001F89
:10688000013143E80012002AF8D1BFF35F8F08BD41
:10689000002C01407C4B002001F0A2B901F056BA57
:1068A0007047000001480249FEF784BF00580040CD
:1068B000FFFF001070B5404E88B03478002C78D1BE
:1068C00009200121FFF754F806200121FFF75CF8A9
:1068D00040F20333ADF8003018238DF80330374809
:1068E000032369468DF80230FEF73EFE344801214D
:1068F000FEF78CFE40F2FF15324801A9ADF80850B2
:10690000ADF80440ADF80A40ADF80640FFF7C8F80E
:106910002D4801A9ADF80850ADF804400125ADF8A7
:106920000A40ADF80640FFF7BBF86023264804A9EB
:10693000ADF81030ADF81250ADF81640ADF8184073
:10694000FFF710F920480821FFF7AFF91E4804A906
:10695000FFF74AF91C480821FFF7AFF9194804A9C5
:10696000FFF700F917480821FFF79FF9154804A918
:10697000FFF73AF913480821FFF79FF91148294614
:10698000FFF766F910482946FFF762F90D482946D6
:10699000FFF76AF90C482946FFF766F94FF4805073
:1069A0002946FEF7A1FC4FF400502946FEF79CFC57
:1069B000357008B070BD00BFF23D0020000C0140F2
:1069C00000081A00000400400008004003280FD807
:1069D000DFE800F00204060A064802E0054804E089
:1069E0000548C909FFF775B90348C909FFF76FB929
:1069F000704700BF000400400008004038B5002484
:106A00000B4B4FF40041E55804342846FFF7DEFFF6
:106A10000A20FDF723FD28460021FFF7D7FF32208B
:106A2000FDF71CFD102CEBD1024B187838BD00BFD0
:106A3000B8EB0008F23D0020054B1A7832B9054A40
:106A400069211060044A117001221A70704700BF5A
:106A5000F43D0020F83D0020F33D0020F0B506464F
:106A600087B00D461046314614461F46FCF73CFFE2
:106A700020B920462946FCF755FFA8B13046FCF75F
:106A800021F9CDE900012846FCF71CF9CDE9020106
:106A90002046FCF717F93A46CDE9040104480549B8
:106AA00004F0E0FF002000E0012007B0F0BD00BFCF
:106AB0002D990008E8EB0008034A03461068034AD2
:106AC0001178192200F016BDF83D0020F33D00209A
:106AD00007B5074B1A22197803230093054B019041
:106AE0001868022300F030FD03B05DF804FB00BF1E
:106AF000F33D0020F83D002013B5074B074C1978F3
:106B000002230093064B019418681B22042300F013
:106B1000A6FC207802B010BDF33D0020FC3D002013
:106B2000F83D002008B5FFF7E7FF032803D8034B23
:106B300053F8200008BD024808BD00BFC8EB00089C
:106B40000000FA3C07B5074B1B221978022300937B
:106B5000054B01901868042300F0F6FC03B05DF8C3
:106B600004FB00BFF33D0020F83D002007B5064BB5
:106B70001B221978054B00901868072300F0C4FC0D
:106B800003B05DF804FB00BFF33D0020F83D00209A
:106B900007B5064B1B221978054B00901868062391
:106BA00000F0B2FC03B05DF804FB00BFF33D002031
:106BB000F83D002007B5064B1B221978054B0090C5
:106BC0001868052300F0A0FC03B05DF804FB00BFCB
:106BD000F33D0020F83D002007B5064B1C22197834
:106BE000054B00901868072300F08EFC03B05DF899
:106BF00004FB00BFF33D0020F83D002007B5064B25
:106C00001C221978054B00901868062300F07CFCC4
:106C100003B05DF804FB00BFF33D0020F83D002009
:106C200007B5064B1C221978054B00901868052300
:106C300000F06AFC03B05DF804FB00BFF33D0020E8
:106C4000F83D002013B5074B074C19780223009339
:106C5000064B019418681C22042300F000FC2078E5
:106C600002B010BDF33D0020FC3D0020F83D0020A7
:106C700008B5FFF7E7FF032803D8034B53F82000BC
:106C800008BD024808BD00BFD8EB00080000FA3C70
:106C900007B5074B1C22197802230093054B01907E
:106CA0001868042300F050FC03B05DF804FB00BF3B
:106CB000F33D0020F83D002007B5064B3722197838
:106CC000054B00901868012300F01EFC03B05DF82E
:106CD00004FB00BFF33D0020F83D0020034A0346BB
:106CE0001068034A1178382200F004BCF83D0020F7
:106CF000F33D00202DE9F3411D46184B184C0F467B
:106D00001978184B00948046164618683B220E23CB
:106D100000F078FB2278637843EA0223A8F8003079
:106D2000A278E37843EA02233B802279637943EA3D
:106D300002233380227A637A43EA02232B80E37AA8
:106D4000A27A43EA0222089B1A80637B227B43EAF1
:106D50000222099B1A8002B0BDE8F081F33D0020B9
:106D6000FC3D0020F83D00202DE9F04F8FB0FFF7EB
:106D70007FFF0546FFF7D6FE142480460DAF0DF1C8
:106D800036060BA80DF12E010CAA0DF13203009767
:106D90000196FFF7AFFF0220FDF760FB013CEDD14C
:106DA000BDF93200FCF7AEFB4146FCF7FFFBBDF836
:106DB0002C20BDF82E300592BDF8302083460120EE
:106DC00006930792BDF834A0BDF83690FFF7CEFECB
:106DD0000120FFF7DDFE0120FFF7ECFE0120FFF7A9
:106DE000FBFE0120FFF70AFF0120FFF719FF0A2031
:106DF000FDF734FB0CAA0DF132030DF12E010097C3
:106E000001960BA8FFF776FFBDF93200FCF77AFB7D
:106E10004146FCF7CBFBBDF82E20BDF834C00892EC
:106E2000BDF8302003462046CDF80CC009920493EB
:106E3000BDF83670BDF82C60FFF798FE2046FFF7CE
:106E4000A7FE2046FFF7B6FE2046FFF7C5FE204608
:106E5000FFF7D4FE2046FFF7E3FE049B5946184691
:106E6000FCF79AFA4C4902464C4B4D48FFF7F6FDA9
:106E7000DDF80CC008B900208AE00FFA8CF0FCF7AE
:106E800041FB4146FCF792FB04460FFA8AF0FCF7FF
:106E900039FB4146FCF78AFB01462046FCF77CFAA9
:106EA00040490246404B4148FFF7D8FD0028E2D058
:106EB00038B2FCF727FB4146FCF778FB04460FFA93
:106EC00089F0FCF71FFB4146FCF770FB01462046AA
:106ED000FCF762FA30490246354B3148FFF7BEFDF8
:106EE0000028C8D030B2FCF70DFB2946FCF75EFB4A
:106EF000059B044618B2FCF705FB2946FCF756FB38
:106F000001462046FCF748FA2A4902462A4B2B48FC
:106F1000FFF7A4FD0028AED0089A10B2FCF7F2FAF1
:106F20002946FCF743FB069B044618B2FCF7EAFA35
:106F30002946FCF73BFB01462046FCF72DFA1D498C
:106F400002461F4B1D48FFF789FD002893D0099A80
:106F500010B2FCF7D7FA2946FCF728FB079B04463A
:106F600018B2FCF7CFFA2946FCF720FB0146204671
:106F7000FCF712FA0F490246124B1048FFF76EFD5C
:106F800000283FF478AF1048104904F06BFD012051
:106F90000FB0BDE8F08F00BF0000D24230EC000817
:106FA00000002041000020C137EC00080000D2C2E0
:106FB0003EEC00083333733F45EC00089A99993E44
:106FC0004BEC000851EC00082D99000857EC000824
:106FD00007B5064B6B22197801230093044B186800
:106FE000072300F091FA03B05DF804FBF33D0020A5
:106FF000F83D002007B5064B6B221978054B009031
:107000001868062300F080FA03B05DF804FB00BFA7
:10701000F33D0020F83D002007B5074B80F001004C
:107020001978064B009018686B22032300F06CFA65
:1070300003B05DF804FB00BFF33D0020F83D0020E5
:1070400007B5074B6B22197803230093054B01907A
:107050001868022300F078FA03B05DF804FB00BF63
:10706000F33D0020F83D002013B5074B074C19787D
:10707000074A0623009301941068752200F0EFF987
:10708000207802B010BD00BFF33D0020FC3D002081
:10709000F83D002008B5FFF7E7FFB0F13403584290
:1070A000584108BD82B032230193019B13B1019B6B
:1070B000013BF9E702B07047C54A73B5904240F012
:1070C000BC80FEF7E3FA4FF400100121FEF75CFCF0
:1070D000032380248DF80630BE48142301A98DF8BF
:1070E0000730ADF80440FEF73FFA4023B94801A944
:1070F000ADF80430FEF738FAB6482146FEF782FABA
:10710000B4488021FEF778FAD8B9B2484021FEF79A
:1071100079FA4CF25134AF484021FEF76DFA08B9C4
:10712000013CF8D1FFF7BEFFAA484021FEF76CFAF8
:10713000FFF7B8FFA7484021FEF764FAFFF7B2FF58
:10714000DEE7A4484021FEF75DFAFFF7ABFFA14858
:107150008021FEF759FAFFF7A5FF9E488021FEF730
:1071600053FAFFF79FFF9B488021FEF74BFA99489F
:107170004021FEF747FA4CF2513496484021FEF781
:107180003BFA10B14CF2513404E0013CF5D1F9E77F
:10719000013C05D08F488021FEF72EFA0128F7D058
:1071A0008B4C204600F036FB238B9A0607D52046F1
:1071B0000121FEF7F3FA20460021FEF7EFFA012441
:1071C000002510230C2601A88DF804308DF80560E9
:1071D0008DF806508DF80740FDF77EFF112301A8BA
:1071E0008DF804308DF805608DF806508DF8074055
:1071F000FDF772FF202301A88DF804308DF805609B
:107200008DF806508DF80740FDF766FF72480221A1
:107210002246FEF712F9714802212246FEF70DF9C7
:10722000032220462946FDF727FB6D4A03461360DB
:10723000002B40F0DF800120E2E06A4A904218BF54
:10724000002040F0DD80FEF721FA4FF4800001219C
:10725000FEF79AFB03234FF400648DF806305D4877
:10726000142301A98DF80730ADF80440FEF77CF92E
:107270004FF48063574801A9ADF80430FEF774F964
:1072800054482146FEF7BEF952484FF40061FEF71C
:10729000B3F9F8B94F484FF48061FEF7B3F94CF2F7
:1072A00051344C484FF48061FEF7A6F908B9013C0F
:1072B000F7D1FFF7F7FE47484FF48061FEF7A4F9D6
:1072C000FFF7F0FE43484FF48061FEF79BF9FFF7AC
:1072D000E9FED9E73F484FF48061FEF793F9FFF7E5
:1072E000E1FE3C484FF40061FEF78EF9FFF7DAFE4D
:1072F00038484FF40061FEF787F9FFF7D3FE3548B1
:107300004FF40061FEF77EF932484FF48061FEF7DA
:1073100079F94CF251342F484FF48061FEF76CF943
:1073200010B14CF2513404E0013CF4D1F9E7013CD6
:1073300006D028484FF40061FEF75EF90128F6D028
:10734000284C204600F066FA238B9B0607D5204682
:107350000121FEF723FA20460021FEF71FFA01243F
:1073600000250E230C2601A88DF804308DF8056049
:107370008DF806508DF80740FDF7AEFE0F2301A8EB
:107380008DF804308DF805608DF806508DF80740B3
:10739000FDF7A2FE222301A88DF804308DF80560C8
:1073A0008DF806508DF80740FDF796FE0E48022135
:1073B0002246FEF742F80D4802212246FEF73DF82C
:1073C000032220462946FDF757FA094A03462EE7CD
:1073D00000540040000C01406C000240800002405C
:1073E000204B00200058004044000240580002405A
:1073F000284B002029462A462B46FDF75EFA1AE75D
:1074000002B070BD7FB5FF2A05461E468DF80F20DD
:107410004FEA41040DD10523E4B2019300942846BC
:1074200008993246002300F013FB003018BF0120FA
:107430000BE0E3B20093052301930DF10F0101224C
:10744000002300F02BF90028E5D104B070BD07B58A
:1074500000930123FFF7D6FF03B05DF804FB37B5B7
:107460001D460DF107039DF81840FFF7F0FF68B1C6
:1074700001222B1B02FA04F40133013C9C409DF8CD
:107480000720144044FA03F3079A137003B030BD89
:1074900073B5FF2A0646069C18D0102B01D81BB3E3
:1074A00000E01023124D2A7000229A4205DA0132C0
:1074B000A01810F8010CA854F7E74900C9B205223A
:1074C0000091019230460A495A1C06E04900C9B2AF
:1074D00005220091019221461A46002300F0DEF8B1
:1074E000003018BF012000E0184602B070BD00BF98
:1074F0000A3E00201FB504AC04F8013D00940123AE
:10750000FFF7C6FF04B010BD2DE9F3411C460DF195
:107510000703164680460F46FFF799FF9DF8202087
:1075200001239DF80750A34012B12B43DBB201E0C9
:1075300025EA03034046394632468DF80730FFF707
:10754000D9FF02B0BDE8F0812DE9F3411D460DF1F0
:10755000070380460F4616469DF82040FFF777FF49
:10756000C0B101232D1B03FA04F49DF8243001352A
:10757000013CAC4003FA05F59DF80730EDB223EA73
:1075800004032C4023434046394632468DF80730E9
:10759000FFF7B0FF02B0BDE8F081000010B54FF476
:1075A0000010FDF75DFF50B14FF40010FDF766FFCE
:1075B0000C4B002118680A460B46FDF77EF94FF088
:1075C0000070FDF74DFF60B14FF00070FDF756FF02
:1075D000BDE81040034B002118680A460B46FDF732
:1075E0006CB910BD204B002010B54FF40050FDF7D2
:1075F00037FF50B14FF40050FDF740FF0C4B002116
:1076000018680A460B46FDF758F94FF40030FDF7AD
:1076100027FF60B14FF40030FDF730FFBDE81040A8
:10762000034B002118680A460B46FDF746B910BD0A
:10763000284B002010B5144C1023A360134B61603D
:107640009842E2600BD11033114800212360FDF70E
:10765000EBFE0F482146FDF7C9FE0D480FE00D4B2C
:107660000D4800212360FDF7DFFE0B482146FDF7A2
:10767000BDFE094802210122FDF7DFFE0648012177
:10768000BDE81040FDF7D0BE2C4B00200054004058
:107690006C00024010580040440002402DE9F341C4
:1076A000002500950195B0F80480012B1FFA88F899
:1076B00048F4807804469DF82070A0F804805AD1E0
:1076C0004FF6FF730193FFF7B5FFA3889BB243F416
:1076D0000063A38023889BB243F480732380A38A32
:1076E000DE0706D4019B5A1E0192002BF7D1002021
:1076F00079E04FF6FF7301933C4B07F0FE071F70D4
:107700001B78DBB22382A38A9D0705D4019B5A1EF6
:107710000192002BF7D1EAE7238B9BB20093344B05
:107720009C420DD1334B0021186805220B46FDF712
:1077300079F931480021FDF777FE4FF400100CE095
:107740002E4B0021186805220B46FDF76BF92C48DB
:107750000021FDF769FE4FF40050FDF777FEA38A84
:107760005807FCD523889BB243F4007323802388F9
:107770009905FCD436E0838807F0FE079BB243F4FA
:107780000073838083889BB243F4806383801D4BA6
:107790001D601D4B1960154B1F70154B98420CBF97
:1077A0001A4B1B4B1A60038841F288329BB243F498
:1077B00080730380099B534301932388DA0509D51D
:1077C000019B3BB1019B013BF6E7019B2BB1019B68
:1077D000013B0193238B9B07F7D40198003018BF1E
:1077E000012000E0012002B0BDE8F081584B0020EC
:1077F00000540040204B00206C000240284B002029
:10780000440002401C3E00201C4B0020604B002026
:107810005C4B0020F0B5012187B006460820FEF73A
:10782000A7F801200146FEF797F8644B9E423BD132
:107830004FF400100121FEF7A7F84023ADF8003007
:1078400003238DF8023069461C235D488DF8033010
:10785000FDF78AFE802369465948ADF80030FDF7F0
:1078600083FE4FF400100121FEF7A6F800214FF42B
:107870000010FEF7A1F81F238DF8043005238DF8C2
:10788000053000238DF8063001A801238DF807305C
:10789000FDF722FC20238DF8043001A806238DF883
:1078A0000530FDF719FC24E04FF480000121FEF7BC
:1078B0006BF84FF48063ADF8003003238DF802308D
:1078C0003F481C2369468DF80330FDF74DFE4FF409
:1078D00000633B486946ADF80030FDF745FE4FF4C4
:1078E00080000121FEF768F84FF480000021FEF7C8
:1078F00063F84BF6FF73ADF80E302823ADF8103067
:107900004FF48063ADF812304FF48043ADF814307B
:107910002C4B06AC294F44F8103D21463846002533
:10792000ADF80C50FDF7CCFE302321462648ADF8CB
:107930001030FDF7C5FEBE42244C1DD12448FDF792
:10794000DFFC244B224884E828001023A3604FF674
:10795000FF73E3608023636121464FF44053636209
:107960002561A561E5612562A562FDF73FFD1A4825
:10797000FDF7C6FC18481CE01848FDF7C1FC184B81
:10798000164884E828001023A3604FF6FF73E360D5
:107990008023636121464FF4405363622561A561F2
:1079A000E5612562A562FDF721FD0E48FDF7A8FC03
:1079B0000C482146FDF71AFD07B0F0BD0054004009
:1079C000000C0140801A0600005800402C4B00209B
:1079D0006C0002401054004080000240440002400D
:1079E0001058004058000240F8B51BB9BDE8F840F7
:1079F000FFF720BE114C124B616098424FF000011E
:107A0000A160E2600AD110330E482360FDF70CFD3F
:107A10000C482146FDF7EAFC0A4809E00A4B0B48EE
:107A20002360FDF701FD09482146FDF7DFFC07480B
:107A30000121BDE8F840FDF7F7BC00BF2C4B00204A
:107A4000005400408000024010580040580002409E
:107A50002DE9F3414FF0000CCDF800C0CDF804C083
:107A6000B0F804C0012B1FFA8CFC4CF4807C044657
:107A700016469DF82070099DA0F804C05CD1FFF760
:107A8000B3FFA3889BB243F48053A380A3889BB227
:107A900043F40063A3804FF6FF73019323889BB2E6
:107AA00043F480732380A38ADE0706D4019B5A1E09
:107AB0000192002BF7D100207BE04FF6FF7301937A
:107AC0003D4B47F001071F701B78DBB22382A38A6E
:107AD000980705D4019B5A1E0192002BF7D1EAE7C3
:107AE000238B9BB20093354B9C420DD1344B00212C
:107AF00018682A460B46FCF795FF32480021FDF72F
:107B000093FC4FF000700CE02F4B002118682A46C0
:107B10000B46FCF787FF2D480021FDF785FC4FF44D
:107B20000030FDF793FC23889BB243F4007323805D
:107B300023889905FCD43BE0838801229BB243F45F
:107B400000738380838817439BB243F480638380F0
:107B50001F4B1A601F4B1960174B1F70174B984231
:107B60000CBF1D4B1D4B1E6003889BB243F48073FA
:107B7000038041F288335D4301952388DA050AD5F5
:107B8000019B43B1019B013B0193F6E7019B2BB1A4
:107B9000019B013B0193238B9B07F7D423889BB266
:107BA00043F4806323800198003018BF012000E077
:107BB000012002B0BDE8F081584B00200054004085
:107BC000204B002080000240284B0020580002403B
:107BD0001C3E0020244B0020604B00205C4B00200A
:107BE00013B50023514A00930193918A89B2009101
:107BF000118B89B201910099C80705D54C490978C4
:107C0000C9B2118200930193019BD90740F18C8086
:107C1000009B9A0730D5474B1968474BB9B9474A7B
:107C20001170474908681178C9B24C1CE4B214704D
:107C3000415C3E4A11821968013919601B68C3B959
:107C4000938823F480631B041B0C938011E03D4A4E
:107C5000002111701B68012B0BD1344A138823F4C7
:107C600080631B041B0C138013889BB243F40073C6
:107C70001380002300930193009B03F08403802B67
:107C80001BD12D4B1A68AAB12C492D4A10680A78CD
:107C9000D2B2541CE4B20C70815C244A118219687F
:107CA000013919601B682BB9938823F480631B0486
:107CB0001B0C9380002300930193009B03F084032B
:107CC000842B0ED1194A13889BB243F4007313809E
:107CD000938823F400731B041B0C938000230093F0
:107CE0000193009B5B061FD5174B1968154B1A783B
:107CF000D2B2501CC0B218700C4B188A88540E4A6D
:107D00001168013911601268012A0AD11A8822F417
:107D100080621204120C1A801A8892B242F4007225
:107D20001A8000230093019302B010BD005400405C
:107D3000584B00201C3E0020604B00201B3E0020C2
:107D40001C4B0020203E0020244B002082B000214C
:107D50001A4A0191938A9BB20193019B580506D55B
:107D6000938A23F480631B041B0C93820191019B73
:107D7000990508D5114A938A23F480631B041B0CD0
:107D8000938200230193019BDA0508D50B4A938A5D
:107D900023F480731B041B0C938200230193019B2B
:107DA0001B0508D5054A938A23F400631B041B0CAA
:107DB00093820023019302B0704700BF005400403B
:107DC00013B50D4B0D4C19780D4B009418680A2211
:107DD0000323FFF717FB60B12378482B08D16378A2
:107DE000342B05D1A078B0F133035842584100E05C
:107DF000002002B010BD00BF6B4B0020654B00207F
:107E0000243E0020824213B5044601DB8A4209DD8C
:107E10008DE8060005481A460549234603F022FE70
:107E2000002000E0012002B010BD00BF2D99000825
:107E300071EC0008044A43011068044A03F0E003AF
:107E400011780122FFF756BB243E00206B4B002027
:107E500010B5084C227862B90749084B08601E210A
:107E600019707023FFF746FB0320FFF7E3FF0123A0
:107E7000237010BD213E0020243E00206B4B0020CB
:107E800038B5064B0546064C1868064B0222197891
:107E90002378FFF72FFB257038BD00BF243E00205C
:107EA000644B00206B4B00202DE9F743144E154D19
:107EB000154C062381468846174629780094306879
:107EC0000322FFF79FFA114B1B78012B04D1306876
:107ED00029780222FFF70EFB2278637843EA022317
:107EE000A9F800302279637943EA0223A8F8003028
:107EF000A278E37843EA02233B8003B0BDE8F08335
:107F0000243E00206B4B0020654B0020644B00207A
:107F1000F0B5424C87B0424D05AE297800962068F6
:107F200000220323FFF76EFA08B9002073E0042053
:107F3000FFF780FF1123297800222068FFF7DAFA83
:107F40000120FFF79DFFFA20FCF788FA02A80DF147
:107F50000A0103AAFFF7A8FF12232978002220684C
:107F6000FFF7C8FA0120FFF78BFFFA20FCF776FA3B
:107F70000DF10E0004A90DF11202FFF795FF4FF469
:107F8000CC704FF41971BDF90820264BFFF73AFF6A
:107F900008B9002735E04FF4CC704FF41971BDF9E2
:107FA0000A20214BFFF72EFF0028F2D04FF4BE70BD
:107FB00040F23A21BDF90C201C4BFFF723FF0028AB
:107FC000E7D01B481B49BDF90E201B4BFFF71AFFDA
:107FD0000028DED016481749BDF91020174BFFF7CF
:107FE00011FF0028D5D016481649BDF91220164BAE
:107FF000FFF708FF0028CCD01448154903F032FDE4
:10800000012729780096206800220323FFF740FA11
:1080100000288AD0384607B0F0BD00BF243E0020BB
:108020006B4B0020B1EC0008B7EC0008BDEC000879
:108030009CFDFFFF68FEFFFFC3EC0008C9EC0008D1
:10804000C6FDFFFF84FEFFFFCFEC00082D9900085E
:10805000D5EC0008F0B5064687B00D46104631460F
:1080600014461F46FBF740FC20B920462946FBF783
:1080700059FCA8B13046FAF725FECDE900012846A3
:10808000FAF720FECDE902012046FAF71BFE3A4638
:10809000CDE904010448054903F0E4FC002000E0B8
:1080A000012007B0F0BD00BF2D990008F0EC0008DA
:1080B0002DE9F84F0C46002845D0002943D0DFF8C1
:1080C00090E04FF00009BEF80460BEF8002081FB8C
:1080D00006674FEAC238320A42EA076212EB080228
:1080E0004FEA272343EB09034343BEF806504FEA08
:1080F000E07BA0FB020184FB054502FB0B33420D34
:10810000BEF8020019440604E00940EA45608019FF
:1081100042EAC1224FEA61534FF000074FEAE511EE
:1081200041EB0701121A63EB0103900A40EA835006
:108130009912FAF7EDFD0022044BFAF741FFFBF725
:10814000D7F8BDE8F88F0020BDE8F88F0000A940FF
:10815000343E002008B588B1094B5A8980FB0223C0
:10816000900C40EA8330991410F57A4041F10001F7
:10817000FBF7DEF90349FBF7CDFA08BD002008BD87
:10818000343E00200000484518B1024B1B89A0EB8B
:1081900003207047343E0020034A03461068034A18
:1081A0001178FF22FFF7A6B9403E00202C3E0020A8
:1081B00030B50E4C0E4D85B029782068FF22002383
:1081C000FFF798F903AB009329782068FF22032377
:1081D000FFF718F99DF80D009DF80C30000240EAF9
:1081E00003409DF80E30184305B030BD403E0020DE
:1081F0002C3E002070B51C4B1B780BB9002431E0DD
:108200004820FFF7C9FF0A20FCF728F94820FFF7AC
:10821000CFFF06465820FFF7BFFF0A20FCF71EF9E4
:108220005820FFF7C5FFFFF7AFFF0546FFF792FFA6
:10823000294604463046FFF73BFF0C4902460C4BEB
:108240000C48FFF707FF0028D8D022460A480B4900
:108250000B4BFFF7FFFE04460028CFD009480A4920
:1082600003F000FC204670BD443E0020008089449D
:1082700037ED00080000E1430000A0C1000070429B
:1082800040ED00082D9900084CED00087FB5002452
:108290000F4D104EA4F15E0328683178FF22DBB247
:1082A000FFF728F978B103AB0093FF22022331785E
:1082B0002868FFF7A7F89DF80D309DF80C2043EAD9
:1082C0000222054BE25202340C2CE1D104B070BD05
:1082D000403E00202C3E0020343E0020034BFF2275
